{
  "contractName": "HelloWorld",
  "abi": [
    {
      "constant": true,
      "inputs": [],
      "name": "borrowProxy",
      "outputs": [
        {
          "name": "",
          "type": "address"
        }
      ],
      "payable": false,
      "stateMutability": "view",
      "type": "function"
    },
    {
      "constant": true,
      "inputs": [],
      "name": "liquidityPool",
      "outputs": [
        {
          "name": "",
          "type": "address"
        }
      ],
      "payable": false,
      "stateMutability": "view",
      "type": "function"
    },
    {
      "constant": true,
      "inputs": [],
      "name": "owner",
      "outputs": [
        {
          "name": "",
          "type": "address"
        }
      ],
      "payable": false,
      "stateMutability": "view",
      "type": "function"
    },
    {
      "inputs": [],
      "payable": false,
      "stateMutability": "nonpayable",
      "type": "constructor"
    },
    {
      "payable": true,
      "stateMutability": "payable",
      "type": "fallback"
    },
    {
      "constant": false,
      "inputs": [
        {
          "name": "_newOwner",
          "type": "address"
        }
      ],
      "name": "setOwner",
      "outputs": [],
      "payable": false,
      "stateMutability": "nonpayable",
      "type": "function"
    },
    {
      "constant": false,
      "inputs": [
        {
          "name": "_newBorrowProxy",
          "type": "address"
        }
      ],
      "name": "setBorrowProxy",
      "outputs": [],
      "payable": false,
      "stateMutability": "nonpayable",
      "type": "function"
    },
    {
      "constant": false,
      "inputs": [
        {
          "name": "_newLiquidityPool",
          "type": "address"
        }
      ],
      "name": "setLiquidityPool",
      "outputs": [],
      "payable": false,
      "stateMutability": "nonpayable",
      "type": "function"
    },
    {
      "constant": false,
      "inputs": [
        {
          "name": "_amountToBorrow",
          "type": "uint256"
        },
        {
          "name": "_amountOfProfitToReturn",
          "type": "uint256"
        }
      ],
      "name": "hello",
      "outputs": [],
      "payable": false,
      "stateMutability": "nonpayable",
      "type": "function"
    },
    {
      "constant": false,
      "inputs": [],
      "name": "deposit",
      "outputs": [],
      "payable": true,
      "stateMutability": "payable",
      "type": "function"
    },
    {
      "constant": false,
      "inputs": [
        {
          "name": "_amountBorrowed",
          "type": "uint256"
        },
        {
          "name": "_amountOfProfitToReturn",
          "type": "uint256"
        }
      ],
      "name": "helloCallback",
      "outputs": [],
      "payable": false,
      "stateMutability": "nonpayable",
      "type": "function"
    }
  ],
  "bytecode": "0x608060405234801561001057600080fd5b5033600160006101000a81548173ffffffffffffffffffffffffffffffffffffffff021916908373ffffffffffffffffffffffffffffffffffffffff1602179055506109f8806100616000396000f3fe6080604052600436106100865760003560e01c8063665a11ca11610059578063665a11ca146101ce57806367d0aa5d146102255780638da5cb5b14610276578063b13319a4146102cd578063d0e30db01461031257610086565b8063018770201461009057806313af4035146100e157806352799cc9146101325780636190d85b14610189575b61008e61031c565b005b34801561009c57600080fd5b506100df600480360360208110156100b357600080fd5b81019080803573ffffffffffffffffffffffffffffffffffffffff16906020019092919050505061037a565b005b3480156100ed57600080fd5b506101306004803603602081101561010457600080fd5b81019080803573ffffffffffffffffffffffffffffffffffffffff169060200190929190505050610415565b005b34801561013e57600080fd5b506101476104b0565b604051808273ffffffffffffffffffffffffffffffffffffffff1673ffffffffffffffffffffffffffffffffffffffff16815260200191505060405180910390f35b34801561019557600080fd5b506101cc600480360360408110156101ac57600080fd5b8101908080359060200190929190803590602001909291905050506104d6565b005b3480156101da57600080fd5b506101e36107f2565b604051808273ffffffffffffffffffffffffffffffffffffffff1673ffffffffffffffffffffffffffffffffffffffff16815260200191505060405180910390f35b34801561023157600080fd5b506102746004803603602081101561024857600080fd5b81019080803573ffffffffffffffffffffffffffffffffffffffff169060200190929190505050610818565b005b34801561028257600080fd5b5061028b6108b3565b604051808273ffffffffffffffffffffffffffffffffffffffff1673ffffffffffffffffffffffffffffffffffffffff16815260200191505060405180910390f35b3480156102d957600080fd5b50610310600480360360408110156102f057600080fd5b8101908080359060200190929190803590602001909291905050506108d9565b005b61031a61031c565b005b34600460008282540192505081905550346000803373ffffffffffffffffffffffffffffffffffffffff1673ffffffffffffffffffffffffffffffffffffffff16815260200190815260200160002060008282540192505081905550565b600160009054906101000a900473ffffffffffffffffffffffffffffffffffffffff1673ffffffffffffffffffffffffffffffffffffffff163373ffffffffffffffffffffffffffffffffffffffff1614156104125780600360006101000a81548173ffffffffffffffffffffffffffffffffffffffff021916908373ffffffffffffffffffffffffffffffffffffffff1602179055505b50565b600160009054906101000a900473ffffffffffffffffffffffffffffffffffffffff1673ffffffffffffffffffffffffffffffffffffffff163373ffffffffffffffffffffffffffffffffffffffff1614156104ad5780600160006101000a81548173ffffffffffffffffffffffffffffffffffffffff021916908373ffffffffffffffffffffffffffffffffffffffff1602179055505b50565b600260009054906101000a900473ffffffffffffffffffffffffffffffffffffffff1681565b600160009054906101000a900473ffffffffffffffffffffffffffffffffffffffff1673ffffffffffffffffffffffffffffffffffffffff163373ffffffffffffffffffffffffffffffffffffffff1614156107ee57600081116105a2576040517f08c379a000000000000000000000000000000000000000000000000000000000815260040180806020018281038252600e8152602001807f70726f666974206973207a65726f00000000000000000000000000000000000081525060200191505060405180910390fd5b803073ffffffffffffffffffffffffffffffffffffffff16311161062e576040517f08c379a00000000000000000000000000000000000000000000000000000000081526004018080602001828103825260128152602001807f62616c616e636520697320746f6f206c6f77000000000000000000000000000081525060200191505060405180910390fd5b600360009054906101000a900473ffffffffffffffffffffffffffffffffffffffff1673ffffffffffffffffffffffffffffffffffffffff16636e2246a773eeeeeeeeeeeeeeeeeeeeeeeeeeeeeeeeeeeeeeee8463b13319a460e01b86866040516024018083815260200182815260200192505050604051602081830303815290604052907bffffffffffffffffffffffffffffffffffffffffffffffffffffffff19166020820180517bffffffffffffffffffffffffffffffffffffffffffffffffffffffff83818316178352505050506040518463ffffffff1660e01b8152600401808473ffffffffffffffffffffffffffffffffffffffff1673ffffffffffffffffffffffffffffffffffffffff16815260200183815260200180602001828103825283818151815260200191508051906020019080838360005b8381101561078757808201518184015260208101905061076c565b50505050905090810190601f1680156107b45780820380516001836020036101000a031916815260200191505b50945050505050600060405180830381600087803b1580156107d557600080fd5b505af11580156107e9573d6000803e3d6000fd5b505050505b5050565b600360009054906101000a900473ffffffffffffffffffffffffffffffffffffffff1681565b600160009054906101000a900473ffffffffffffffffffffffffffffffffffffffff1673ffffffffffffffffffffffffffffffffffffffff163373ffffffffffffffffffffffffffffffffffffffff1614156108b05780600260006101000a81548173ffffffffffffffffffffffffffffffffffffffff021916908373ffffffffffffffffffffffffffffffffffffffff1602179055505b50565b600160009054906101000a900473ffffffffffffffffffffffffffffffffffffffff1681565b600260009054906101000a900473ffffffffffffffffffffffffffffffffffffffff1673ffffffffffffffffffffffffffffffffffffffff163373ffffffffffffffffffffffffffffffffffffffff1614156109c8578181013073ffffffffffffffffffffffffffffffffffffffff1631101561095257fe5b6000811161095c57fe5b600360009054906101000a900473ffffffffffffffffffffffffffffffffffffffff1673ffffffffffffffffffffffffffffffffffffffff166108fc8284019081150290604051600060405180830381858888f193505050501580156109c6573d6000803e3d6000fd5b505b505056fea165627a7a7230582014f6e700e687e72ddf84e03a75cc4056969be33cffc59653e974d93a3726bcc80029",
  "source": "// SPDX-License-Identifier: MIT\r\npragma solidity >=0.4.21 <0.7.0;\r\n\r\n/// @dev This interfaces defines the functions of the KeeperDAO liquidity pool\r\n/// that our contract needs to know about. The only function we need is the\r\n/// borrow function, which allows us to take flash loans from the liquidity\r\n/// pool.\r\ninterface LiquidityPool {\r\n    /// @dev Borrow ETH/ERC20s from the liquidity pool. This function will (1)\r\n    /// send an amount of tokens to the `msg.sender`, (2) call\r\n    /// `msg.sender.call(_data)` from the KeeperDAO borrow proxy, and then (3)\r\n    /// check that the balance of the liquidity pool is greater than it was\r\n    /// before the borrow.\r\n    ///\r\n    /// @param _token The address of the ERC20 to be borrowed. ETH can be\r\n    /// borrowed by specifying \"0xEeeeeEeeeEeEeeEeEeEeeEEEeeeeEeeeeeeeEEeE\".\r\n    /// @param _amount The amount of the ERC20 (or ETH) to be borrowed. At least\r\n    /// more than this amount must be returned to the liquidity pool before the\r\n    /// end of the transaction, otherwise the transaction will revert.\r\n    /// @param _data The calldata that encodes the callback to be called on the\r\n    /// `msg.sender`. This is the mechanism through which the borrower is able\r\n    /// to implement their custom keeper logic. The callback will be called from\r\n    /// the KeeperDAO borrow proxy.\r\n    function borrow(\r\n        address _token,\r\n        uint256 _amount,\r\n        bytes calldata _data\r\n    ) external;\r\n}\r\n\r\n/// @dev This contract implements a simple keeper. It borrows ETH from the\r\n/// KeeperDAO liquidity pool, and immediately returns all of the borrowed ETH,\r\n/// plus some amount of \"profit\" from its own balance. Instead of returning\r\n/// profits from their own balances, keeper contracts will usually engage in\r\n/// arbitrage or liquidations to earn profits that can be returned.\r\ncontract HelloWorld {\r\n    mapping(address => uint256) balances;\r\n    /// @dev Owner of the contract.\r\n    address public owner;\r\n\r\n    /// @dev Address of the KeeperDAO borrow proxy. This will be the\r\n    /// `msg.sender` for calls to the `helloCallback` function.\r\n    address public borrowProxy;\r\n\r\n    /// @dev Address of the KeeperDAO liquidity pool. This is will be the\r\n    /// address to which the `helloCallback` function must return all bororwed\r\n    /// assets (and all excess profits).\r\n    address payable public liquidityPool;\r\n\r\n    uint total;\r\n\r\n    /// @dev This modifier restricts the caller of a function to the owner of\r\n    /// this contract.\r\n    modifier onlyOwner {\r\n        if (msg.sender == owner) {\r\n            _;\r\n        }\r\n    }\r\n\r\n    /// @dev This modifier restricts the caller of a function to the KeeperDAO\r\n    /// borrow proxy.\r\n    modifier onlyBorrowProxy {\r\n        if (msg.sender == borrowProxy) {\r\n            _;\r\n        }\r\n    }\r\n\r\n    constructor() public {\r\n        owner = msg.sender;\r\n    }\r\n\r\n    /// @dev Set the owner of this contract. This function can only be called by\r\n    /// the current owner.\r\n    ///\r\n    /// @param _newOwner The new owner of this contract.\r\n    function setOwner(address _newOwner) external onlyOwner {\r\n        owner = _newOwner;\r\n    }\r\n\r\n    /// @dev Set the borrow proxy expected by this contract. This function can\r\n    /// only be called by the current owner.\r\n    ///\r\n    /// @param _newBorrowProxy The new borrow proxy expected by this contract.\r\n    function setBorrowProxy(address _newBorrowProxy) external onlyOwner {\r\n        borrowProxy = _newBorrowProxy;\r\n    }\r\n\r\n    /// @dev Set the liquidity pool used by this contract. This function can\r\n    /// only be called by the current owner.\r\n    ///\r\n    /// @param _newLiquidityPool The new liquidity pool used by this contract.\r\n    /// It must be a payable address, because this contract needs to be able to\r\n    /// return borrowed assets and profits to the liquidty pool.\r\n    function setLiquidityPool(address payable _newLiquidityPool)\r\n        external\r\n        onlyOwner\r\n    {\r\n        liquidityPool = _newLiquidityPool;\r\n    }\r\n\r\n    /// @dev This function is the entry point of this keeper. An off-chain bot\r\n    /// will call this function whenever it decides that it wants to borrow from\r\n    /// this KeeperDAO liquidity pool. This function is similar to what you\r\n    /// would expect in a \"real\" keeper implementation: it accepts paramters\r\n    /// telling it what / how much to borrow, and which callback on this\r\n    /// contract should be called once the borrowed funds have been transferred.\r\n    function hello(uint256 _amountToBorrow, uint256 _amountOfProfitToReturn)\r\n        external\r\n        onlyOwner\r\n    {\r\n        require(_amountOfProfitToReturn > 0, \"profit is zero\");\r\n        require(\r\n            address(this).balance > _amountOfProfitToReturn,\r\n            \"balance is too low\"\r\n        );\r\n\r\n        // The liquidity pool is guarded from re-entrance, so we can only call\r\n        // this function once per transaction.\r\n        LiquidityPool(liquidityPool).borrow(\r\n            // Address of the token we want to borrow. Using this address\r\n            // means that we want to borrow ETH.\r\n            address(0xEeeeeEeeeEeEeeEeEeEeeEEEeeeeEeeeeeeeEEeE),\r\n            // The amount of WEI that we will borrow. We have to return at least\r\n            // more than this amount.\r\n            _amountToBorrow,\r\n            // Encode the callback into calldata. This will be used to call a\r\n            // function on this contract.\r\n            abi.encodeWithSelector(\r\n                // Function selector of the callback function.\r\n                this.helloCallback.selector,\r\n                // First parameter of the callback.\r\n                _amountToBorrow,\r\n                // Second parameter of the callback.\r\n                _amountOfProfitToReturn\r\n                // Third paramter, fourth parameter, and so on (our callback\r\n                // only has two paramters).\r\n            )\r\n        );\r\n    }\r\n\r\n    function deposit() public payable {\r\n        total += msg.value;\r\n        balances[msg.sender]+=msg.value;\r\n        }\r\n    function() external payable  {deposit();}\r\n\r\n    /// @dev This is the callback function that implements our custom keeper\r\n    /// logic. We do not need to call this function directly; it will be called\r\n    /// by the KeeperDAO borrow proxy when we call borrow on the KeeperDAO\r\n    /// liquidity pool. In fact, usually, this function should be restricted so\r\n    /// that is can only be called by the KeeperDAO borrow proxy.\r\n    ///\r\n    /// Just before this callback is called by the KeeperDAO borrow proxy, all\r\n    /// of the assets that we want to borrow will be transferred to this\r\n    /// contract. In this callback, we can do whatever we want with these\r\n    /// assets; we can arbitrage between DEXs, liquidity positions on Compound,\r\n    /// and so on. The only requirement is that at least more than the borrowed\r\n    /// assets is returned.\r\n    ///\r\n    /// For example, imagine that we wanted borrowed 1 ETH. Before this callback\r\n    /// is called, the KeeperDAO liquidity pool will have transferred 1 ETH to\r\n    /// this contract. This callback can then do whatever it wants with that ETH.\r\n    /// However, before the callback returns, it must return at least more than\r\n    /// 1 ETH to the KeeperDAO liquidity pool (even if it is only returning\r\n    /// 1 ETH + 1 WEI).\r\n    ///\r\n    /// In our example, we will not implement a complicated keeper strategy. We\r\n    /// will simply return all of the borrowed ETH, plus a non-zero amount of\r\n    /// profit. The amount of profit is explicitly specified by the owner of\r\n    /// this contract when they initiate the borrow. Of course, this strategy\r\n    /// does not generate profit by interacting with other protocols (like most\r\n    /// keepers do). Instead, it just uses its own balance to return profits to\r\n    /// KeeperDAO.\r\n    function helloCallback(\r\n        uint256 _amountBorrowed,\r\n        uint256 _amountOfProfitToReturn\r\n    ) external onlyBorrowProxy {\r\n        assert(\r\n            address(this).balance >= _amountOfProfitToReturn + _amountBorrowed\r\n        );\r\n        assert(_amountOfProfitToReturn > 0);\r\n\r\n        // Notice that assets are transferred back to the liquidity pool, not to\r\n        // the borrow proxy.\r\n        liquidityPool.transfer(_amountBorrowed + _amountOfProfitToReturn);\r\n    }\r\n}\r\n",
  "sourcePath": "C:/Users/Shane/Documents/keeperdao/blockchain/contracts/HelloWorld.sol",
  "compiler": {
    "name": "solc",
    "version": "0.5.8+commit.23d335f2.Emscripten.clang"
  },
  "schemaVersion": "3.0.16",
  "updatedAt": "2020-08-11T19:49:09.287Z",
  "devdoc": {
    "methods": {
      "setBorrowProxy(address)": {
        "params": {
          "_newBorrowProxy": "The new borrow proxy expected by this contract."
        }
      },
      "setOwner(address)": {
        "params": {
          "_newOwner": "The new owner of this contract."
        }
      }
    }
  },
  "userdoc": {
    "methods": {
      "hello(uint256,uint256)": {
        "notice": "contract should be called once the borrowed funds have been transferred."
      },
      "helloCallback(uint256,uint256)": {
        "notice": "KeeperDAO."
      },
      "setLiquidityPool(address)": {
        "notice": "return borrowed assets and profits to the liquidty pool."
      }
    },
    "notice": "arbitrage or liquidations to earn profits that can be returned."
  }
}